:020000040800F2
:10000000002800209D0B0008410B0008470B00084A
:100010004D0B0008530B0008590B000800000000AE
:100020000000000000000000000000005F0B00085E
:100030006B0B000800000000770B0008830B000822
:10004000E50B0008E50B0008E50B0008E50B0008D0
:10005000E50B0008E50B0008E50B0008E50B0008C0
:10006000E50B0008E50B0008E50B0008E50B0008B0
:10007000E50B0008E50B0008E50B0008E50B0008A0
:10008000E50B0008E50B0008E50B0008E50B000890
:10009000E50B0008E50B0008E50B0008E50B000880
:1000A000E50B0008E50B0008E50B0008E50B000870
:1000B000E50B0008E50B000800000000E50B000858
:1000C000E50B00080000000000000000E50B000840
:1000D00000000000E50B0008E50B00080000000030
:1000E000E50B0008E50B0008E50B00080000000028
:1000F0000000000000000000000000000000000000
:0C01000000000000000000005FF808F1A3
:10010C0010B5054C237833B9044B13B10448AFF345
:10011C0000800123237010BD0C00002000000000A3
:10012C00081A000808B5034B1BB103490348AFF389
:10013C00008008BD0000000010000020081A000814
:10014C0080B582B000AF78607B68002B22D1002292
:10015C000121BD4801F026F800220221BA4801F025
:10016C0021F800220421B84801F01CF800220821D3
:10017C00B54801F017F800221021B34801F012F82D
:10018C0000222021B04801F00DF801224021AE4898
:10019C0001F008F87B68012B22D101220121AA4829
:1001AC0001F000F800220221A74800F0FBFF00221A
:1001BC000421A54800F0F6FF01220821A24800F016
:1001CC00F1FF01221021A04800F0ECFF01222021B8
:1001DC009D4800F0E7FF012240219B4800F0E2FF20
:1001EC007B68022B22D100220121974800F0DAFF14
:1001FC0000220221944800F0D5FF012204219248EC
:10020C0000F0D0FF002208218F4800F0CBFF002225
:10021C0010218D4800F0C6FF012220218A4800F0F1
:10022C00C1FF00224021884800F0BCFF7B68032BF3
:10023C0022D100220121844800F0B4FF00220221C7
:10024C00814800F0AFFF002204217F4800F0AAFF94
:10025C00002208217C4800F0A5FF012210217A48D9
:10026C0000F0A0FF01222021774800F09BFF002224
:10027C004021754800F096FF7B68042B22D10122A7
:10028C000121714800F08EFF002202216E4800F01F
:10029C0089FF002204216C4800F084FF0122082110
:1002AC00694800F07FFF01221021674800F07AFFB7
:1002BC0000222021644800F075FF00224021624892
:1002CC0000F070FF7B68052B22D1002201215E48D3
:1002DC0000F068FF012202215B4800F063FF00225E
:1002EC000421594800F05EFF00220821564800F016
:1002FC0059FF01221021544800F054FF0022202104
:10030C00514800F04FFF002240214F4800F04AFFB7
:10031C007B68062B22D1002201214B4800F042FFC2
:10032C0001220221484800F03DFF002204214648EA
:10033C0000F038FF00220821434800F033FF002270
:10034C001021414800F02EFF002220213E4800F0F1
:10035C0029FF002240213C4800F024FF7B68072B3A
:10036C0022D100220121384800F01CFF002202217A
:10037C00354800F017FF00220421334800F012FF2B
:10038C0001220821304800F00DFF012210212E48D7
:10039C0000F008FF012220212B4800F003FF01226E
:1003AC004021294800F0FEFE7B68082B22D1002258
:1003BC000121254800F0F6FE00220221224800F01F
:1003CC00F1FE00220421204800F0ECFE002208215E
:1003DC001D4800F0E7FE002210211B4800F0E2FE51
:1003EC0000222021184800F0DDFE00224021164892
:1003FC0000F0D8FE7B68092B22D100220121124883
:10040C0000F0D0FE002202210F4800F0CBFE0022AB
:10041C0004210D4800F0C6FE002208210A4800F015
:10042C00C1FE01221021084800F0BCFE0022202150
:10043C00054800F0B7FE00224021034800F0B2FE50
:10044C0000BF0837BD4680BD000C014080B582B0AE
:10045C0000AF78607B68002B28D100228021D24825
:10046C0000F0A0FE00224FF48071CF4800F09AFEFD
:10047C0000224FF40071CC4800F094FE00224FF49F
:10048C008061C94800F08EFE00224FF40061C6481E
:10049C0000F088FE00224FF48051C34800F082FE29
:1004AC0001224FF40051C04800F07CFE7B68012B08
:1004BC0028D101228021BC4800F074FE00224FF4A8
:1004CC008071B94800F06EFE00224FF40071B648FE
:1004DC0000F068FE01224FF48061B34800F062FE28
:1004EC0001224FF40061B04800F05CFE01224FF491
:1004FC008051AD4800F056FE01224FF40051AA483D
:10050C0000F050FE7B68022B28D100228021A648E7
:10051C0000F048FE00224FF48071A34800F042FE28
:10052C0001224FF40071A04800F03CFE00224FF471
:10053C0080619D4800F036FE00224FF400619A481D
:10054C0000F030FE01224FF48051974800F02AFE53
:10055C0000224FF40051944800F024FE7B68032BDA
:10056C0028D100228021904800F01CFE00224FF47C
:10057C0080718D4800F016FE00224FF400718A48FD
:10058C0000F010FE00224FF48061874800F00AFE54
:10059C0001224FF40061844800F004FE01224FF464
:1005AC008051814800F0FEFD00224FF400517E483E
:1005BC0000F0F8FD7B68042B28D1012280217A48B9
:1005CC0000F0F0FD00224FF48071774800F0EAFD56
:1005DC0000224FF40071744800F0E4FD01224FF446
:1005EC008061714800F0DEFD01224FF400616E481D
:1005FC0000F0D8FD00224FF480516B4800F0D2FD82
:10060C0000224FF40051684800F0CCFD7B68052BAC
:10061C0028D100228021644800F0C4FD01224FF44F
:10062C008071614800F0BEFD00224FF400715E48FD
:10063C0000F0B8FD00224FF480615B4800F0B2FD81
:10064C0001224FF40061584800F0ACFD00224FF439
:10065C008051554800F0A6FD00224FF4005152483D
:10066C0000F0A0FD7B68062B28D1002280214E488B
:10067C0000F098FD01224FF480714B4800F092FD80
:10068C0000224FF40071484800F08CFD00224FF41A
:10069C008061454800F086FD00224FF4006142481D
:1006AC0000F080FD00224FF480513F4800F07AFDAD
:1006BC0000224FF400513C4800F074FD7B68072B7E
:1006CC0028D100228021384800F06CFD00224FF424
:1006DC008071354800F066FD00224FF400713248FD
:1006EC0000F060FD01224FF480612F4800F05AFDAC
:1006FC0001224FF400612C4800F054FD01224FF40C
:10070C008051294800F04EFD01224FF4005126483B
:10071C0000F048FD7B68082B28D10022802122485C
:10072C0000F040FD00224FF480711F4800F03AFDAC
:10073C0000224FF400711C4800F034FD00224FF4ED
:10074C008061194800F02EFD00224FF4006116481C
:10075C0000F028FD00224FF48051134800F022FDD8
:10076C0000224FF40051104800F01CFD7B68092B4F
:10077C002BD1002280210C4800F014FD00224FF4F4
:10078C008071094800F00EFD00224FF400710648FC
:10079C0000F008FD00224FF48061034800F002FDD8
:1007AC0001224FF4006101E0000C0140094800F007
:1007BC00F9FC00224FF48051064800F0F3FC0022B3
:1007CC004FF40051034800F0EDFC00BF0837BD4664
:1007DC0080BD00BF000C014080B58AB000AF00F0B6
:1007EC00FDF900F0DDF800F017F90523FB6002239A
:1007FC00BB6003237B60FB687B62BB683B627B68EE
:10080C00FB61FB68BB61BB687B617B683B61012260
:10081C008021624800F0C6FC012240215F4800F0B4
:10082C00C1FC012220215D4800F0BCFC01224FF4E8
:10083C0080615A4800F0B6FC01224FF40071574811
:10084C0000F0B0FC01224FF48071544800F0AAFC77
:10085C007B6A002B0EDCBB69002B0BDCFB687B621C
:10086C00BB683B627B68FB61FB68BB61BB687B61FF
:10087C007B683B617B6A002B46DD3B69002B14DDFA
:10088C0001224FF48071454800F08CFC00224FF49B
:10089C008061424800F086FC3B69013B1846FFF73B
:1008AC00D5FD3B69013B3B6116E07B69002B13DDF9
:1008BC0001224FF48061394800F074FC00224FF49F
:1008CC000071364800F06EFC7B69013B1846FFF75F
:1008DC00BDFD7B69013B7B61012280212F4800F02B
:1008EC0061FC012240212D4800F05CFC00222021FB
:1008FC002A4800F057FC7B6A013B1846FFF720FCA6
:10090C007B6A013B7B6244E0FB69002B12DD012218
:10091C002021224800F046FC002280211F4800F0D4
:10092C0041FCFB69013B1846FFF70AFCFB69013BE4
:10093C00FB6114E03B6A002B11DD0122802117487A
:10094C0000F030FC00224021144800F02BFC3B6AE4
:10095C00013B1846FFF7F4FB3B6A013B3B6201226B
:10096C004FF480610D4800F01DFC01224FF4007122
:10097C000A4800F017FC00224FF48071074800F081
:10098C0011FCBB69013B1846FFF760FDBB69013BDD
:10099C00BB614FF47A7000F083F959E7000801400D
:1009AC0080B590B000AF07F118032822002118463B
:1009BC0001F01CF83B1D00221A605A609A60DA6044
:1009CC001A610223BB610123BB621023FB6200236B
:1009DC007B6307F11803184600F0FCFB0346002B61
:1009EC0001D000F06FF80F237B600023BB60002365
:1009FC00FB6000233B6100237B613B1D00211846FB
:100A0C0000F068FE0346002B01D000F05BF800BF3D
:100A1C004037BD4680BD000080B586B000AF07F101
:100A2C00080300221A605A609A60DA60224B9B69B4
:100A3C00214A43F0040393611F4B9B6903F00403A9
:100A4C007B607B681C4B9B691B4A43F008039361DA
:100A5C00194B9B6903F008033B603B6800224FF481
:100A6C00FC61164800F09EFB002243F6FF7114480F
:100A7C0000F098FB4FF4FC63BB600123FB60002388
:100A8C003B6102237B6107F1080319460B4800F018
:100A9C000FFA43F6FF73BB600123FB6000233B613D
:100AAC0002237B6107F108031946054800F000FAA0
:100ABC0000BF1837BD4680BD001002400008014041
:100ACC00000C014080B400AF72B600BFFEE700001E
:100ADC0080B485B000AF154B9B69144A43F00103F9
:100AEC009361124B9B6903F00103BB60BB680F4B16
:100AFC00DB690E4A43F08053D3610C4BDB6903F086
:100B0C0080537B607B680A4B5B68FB60FB6823F05F
:100B1C00E063FB60FB6843F08063FB60044AFB68A6
:100B2C00536000BF1437BD4680BC704700100240B4
:100B3C000000014080B400AFFEE780B400AFFEE7D8
:100B4C0080B400AFFEE780B400AFFEE780B400AF26
:100B5C00FEE780B400AF00BFBD4680BC704780B4D8
:100B6C0000AF00BFBD4680BC704780B400AF00BF73
:100B7C00BD4680BC704780B500AF00F075F800BF73
:100B8C0080BD80B400AF00BFBD4680BC7047000084
:100B9C000C480D490D4A002302E0D458C4500433CC
:100BAC00C4188C42F9D30A4A0A4C002301E01360A2
:100BBC000432A242FBD3FFF7E4FF00F0F3FEFFF791
:100BCC000BFE7047000000200C000020481A0008A3
:100BDC000C0000202C000020FEE7000080B500AFC8
:100BEC00084B1B68074A43F010031360032000F006
:100BFC002BF90F2000F008F8FFF76AFF00231846C6
:100C0C0080BD00BF0020024080B582B000AF78608C
:100C1C00124B1A68124B1B7819464FF47A73B3FBBC
:100C2C00F1F3B2FBF3F3184600F035F90346002B51
:100C3C0001D001230EE07B680F2B0AD800227968C3
:100C4C004FF0FF3000F00BF9064A7B68136000236D
:100C5C0000E0012318460837BD4680BD0000002087
:100C6C00080000200400002080B400AF054B1B7866
:100C7C001A46054B1B681344034A136000BFBD465C
:100C8C0080BC7047080000202800002080B400AF12
:100C9C00024B1B681846BD4680BC704728000020DC
:100CAC0080B584B000AF7860FFF7F0FFB8607B6868
:100CBC00FB60FB68B3F1FF3F05D00A4B1B781A466B
:100CCC00FB681344FB6000BFFFF7E0FF0246BB6804
:100CDC00D31AFA689A42F7D800BF00BF1037BD4646
:100CEC0080BD00BF0800002080B485B000AF7860E4
:100CFC007B6803F00703FB600C4BDB68BB60BA68D6
:100D0C004FF6FF031340BB60FB681A02BB6813432A
:100D1C0043F0BF6343F40033BB60044ABB68D36049
:100D2C0000BF1437BD4680BC704700BF00ED00E02B
:100D3C0080B400AF044BDB681B0A03F007031846B2
:100D4C00BD4680BC704700BF00ED00E080B483B0AE
:100D5C0000AF03463960FB7197F90730002B0ADBB3
:100D6C003B68DAB20C4997F907301201D2B20B4446
:100D7C0083F800230AE03B68DAB20849FB7903F0F8
:100D8C000F03043B1201D2B20B441A7600BF0C378E
:100D9C00BD4680BC704700BF00E100E000ED00E004
:100DAC0080B489B000AFF860B9607A60FB6803F07A
:100DBC000703FB61FB69C3F10703042B28BF042362
:100DCC00BB61FB690433062B02D9FB69033B00E0D2
:100DDC0000237B614FF0FF32BB6902FA03F3DA4365
:100DEC00BB681A407B699A404FF0FF317B6901FA6E
:100DFC0003F3D9437B680B40134318462437BD4695
:100E0C0080BC704780B582B000AF78607B68013BD6
:100E1C00B3F1807F01D301230FE00A4A7B68013BC9
:100E2C0053600F214FF0FF30FFF790FF054B00226E
:100E3C009A60044B07221A60002318460837BD46F7
:100E4C0080BD00BF10E000E080B582B000AF7860DC
:100E5C007868FFF749FF00BF0837BD4680BD80B5F5
:100E6C0086B000AF0346B9607A60FB7300237B61E8
:100E7C00FFF75EFF78617A68B9687869FFF790FFD1
:100E8C00024697F90F3011461846FFF75FFF00BF77
:100E9C001837BD4680BD80B582B000AF78607868E9
:100EAC00FFF7B0FF034618460837BD4680BD00006B
:100EBC0080B48BB000AF7860396000237B62002374
:100ECC003B6248E101227B6A02FA03F3FB613B6857
:100EDC001B68FA691340BB61BA69FB699A4240F01E
:100EEC0037813B685B68A34A93425ED0A14A934228
:100EFC0075D8A14A934258D09F4A93426FD89F4AC3
:100F0C00934252D09D4A934269D89D4A93424CD009
:100F1C009B4A934263D89B4A934246D0994A934248
:100F2C005DD8122B2AD8122B59D801A252F823F0D3
:100F3C00B70F0008910F0008A30F0008E50F000879
:100F4C00EB0F0008EB0F0008EB0F0008EB0F00088D
:100F5C00EB0F0008EB0F0008EB0F0008EB0F00087D
:100F6C00EB0F0008EB0F0008EB0F0008EB0F00086D
:100F7C00EB0F0008990F0008AD0F0008824A93424E
:100F8C0013D02CE03B68DB683B6229E03B68DB68F4
:100F9C0004333B6224E03B68DB6808333B621FE0B0
:100FAC003B68DB680C333B621AE03B689B68002BA8
:100FBC0002D104233B6213E03B689B68012B05D1F3
:100FCC0008233B627B68FA691A6109E008233B62DB
:100FDC007B68FA695A6103E000233B6200E000BFC2
:100FEC00BB69FF2B01D87B6801E07B6804337B6114
:100FFC00BB69FF2B02D87B6A9B0002E07B6A083B33
:10100C009B003B617B691A680F213B6901FA03F372
:10101C00DB431A40396A3B6901FA03F31A437B69D3
:10102C001A603B685B6803F08053002B00F09080E3
:10103C00564B9B69554A43F001039361534B9B6993
:10104C0003F00103BB60BB68514A7B6A9B08023307
:10105C0052F82330FB607B6A03F003039B000F22E2
:10106C0002FA03F3DB43FA681340FB607B68494ADE
:10107C0093420DD07B68484A934207D07B68474A1D
:10108C00934201D1022304E0032302E0012300E098
:10109C0000237A6A02F0030292009340FA68134329
:1010AC00FB603B497B6A9B080233FA6841F82320BA
:1010BC003B685B6803F48033002B06D0384B1A680E
:1010CC003749BB6913430B6006E0354B1A68BB69A3
:1010DC00DB43334913400B603B685B6803F400331C
:1010EC00002B06D02E4B5A682D49BB6913434B601D
:1010FC0006E02B4B5A68BB69DB43294913404B6014
:10110C003B685B6803F48013002B06D0244B9A6871
:10111C002349BB6913438B6006E0214B9A68BB697A
:10112C00DB431F4913408B603B685B6803F400137F
:10113C00002B06D01A4BDA681949BB691343CB60F4
:10114C0006E0174BDA68BB69DB4315491340CB60EB
:10115C007B6A01337B623B681A687B6A22FA03F371
:10116C00002B7FF4AFAE00BF00BF2C37BD4680BC58
:10117C00704700BF00003210000031100000221038
:10118C00000021100000121000001110001002408D
:10119C000000014000080140000C0140001001401B
:1011AC000004014080B483B000AF78600B467B80B4
:1011BC0013467B707B78002B03D07A887B681A618E
:1011CC0003E07B881A047B681A6100BF0C37BD46AC
:1011DC0080BC704780B586B000AF78607B68002B10
:1011EC0001D101236CE27B681B6803F00103002B27
:1011FC0000F08780924B5B6803F00C03042B0CD03F
:10120C008F4B5B6803F00C03082B12D18C4B5B6883
:10121C0003F48033B3F5803F0BD1894B1B6803F487
:10122C000033002B6CD07B685B68002B68D10123EA
:10123C0046E27B685B68B3F5803F06D1804B1B6848
:10124C007F4A43F4803313602EE07B685B68002B8D
:10125C000CD17B4B1B687A4A23F480331360784B98
:10126C001B68774A23F4802313601DE07B685B685E
:10127C00B3F5A02F0CD1724B1B68714A43F4802339
:10128C0013606F4B1B686E4A43F4803313600BE0A2
:10129C006B4B1B686A4A23F480331360684B1B68E2
:1012AC00674A23F4802313607B685B68002B13D0A0
:1012BC00FFF7ECFC386108E0FFF7E8FC02463B69FD
:1012CC00D31A642B01D90323FAE15D4B1B6803F499
:1012DC000033002BF0D014E0FFF7D8FC386108E0A5
:1012EC00FFF7D4FC02463B69D31A642B01D90323C4
:1012FC00E6E1534B1B6803F40033002BF0D100E004
:10130C0000BF7B681B6803F00203002B63D04C4BBF
:10131C005B6803F00C03002B0BD0494B5B6803F0AC
:10132C000C03082B1CD1464B5B6803F48033002B59
:10133C0016D1434B1B6803F00203002B05D07B68CE
:10134C001B69012B01D00123BAE13D4B1B6823F033
:10135C00F8027B685B69DB00394913430B603AE0A8
:10136C007B681B69002B20D0364B01221A60FFF7DB
:10137C008DFC386108E0FFF789FC02463B69D31A03
:10138C00022B01D903239BE12D4B1B6803F00203B5
:10139C00002BF0D02A4B1B6823F0F8027B685B69AA
:1013AC00DB00274913430B6015E0264B00221A6023
:1013BC00FFF76CFC386108E0FFF768FC02463B69FC
:1013CC00D31A022B01D903237AE11D4B1B6803F0BE
:1013DC000203002BF0D17B681B6803F00803002B81
:1013EC003AD07B689B69002B19D0174B01221A60ED
:1013FC00FFF74CFC386108E0FFF748FC02463B69FC
:10140C00D31A022B01D903235AE10D4B5B6A03F06B
:10141C000203002BF0D0012000F0A6FA1CE00A4BCE
:10142C0000221A60FFF732FC38610FE0FFF72EFC48
:10143C0002463B69D31A022B08D9032340E100BFB3
:10144C000010024000004242800442429E4B5B6A04
:10145C0003F00203002BE9D17B681B6803F0040343
:10146C00002B00F0A6800023FB75974BDB6903F083
:10147C008053002B0DD1944BDB69934A43F080537E
:10148C00D361914BDB6903F08053BB60BB680123D4
:10149C00FB758E4B1B6803F48073002B18D18B4BA0
:1014AC001B688A4A43F480731360FFF7EFFB3861C3
:1014BC0008E0FFF7EBFB02463B69D31A642B01D91A
:1014CC000323FDE0814B1B6803F48073002BF0D0E9
:1014DC007B68DB68012B06D17B4B1B6A7A4A43F095
:1014EC00010313622DE07B68DB68002B0CD1764B7B
:1014FC001B6A754A23F001031362734B1B6A724A11
:10150C0023F0040313621CE07B68DB68052B0CD111
:10151C006D4B1B6A6C4A43F0040313626A4B1B6AE3
:10152C00694A43F0010313620BE0674B1B6A664A7E
:10153C0023F001031362644B1B6A634A23F0040318
:10154C0013627B68DB68002B15D0FFF79FFB3861BB
:10155C000AE0FFF79BFB02463B69D31A41F2883243
:10156C00934201D90323ABE0574B1B6A03F00203F0
:10157C00002BEED014E0FFF789FB38610AE0FFF78F
:10158C0085FB02463B69D31A41F28832934201D95A
:10159C00032395E04C4B1B6A03F00203002BEED1A6
:1015AC00FB7D012B05D1484BDB69474A23F0805367
:1015BC00D3617B68DB69002B00F08180424B5B6858
:1015CC0003F00C03082B61D07B68DB69022B46D13E
:1015DC003F4B00221A60FFF759FB386108E0FFF718
:1015EC0055FB02463B69D31A022B01D9032367E052
:1015FC00354B1B6803F00073002BF0D17B681B6A22
:10160C00B3F5803F08D1304B5B6823F400327B6824
:10161C009B682D4913434B602B4B5B6823F474126E
:10162C007B68196A7B685B6A0B43274913434B60E1
:10163C00274B01221A60FFF729FB386108E0FFF7FE
:10164C0025FB02463B69D31A022B01D9032337E051
:10165C001D4B1B6803F00073002BF0D02FE01C4BCC
:10166C0000221A60FFF712FB386108E0FFF70EFB4F
:10167C0002463B69D31A022B01D9032320E0124BFB
:10168C001B6803F00073002BF0D118E07B68DB695A
:10169C00012B01D1012313E00B4B5B68FB60FB6852
:1016AC0003F480327B681B6A9A4206D1FB6803F410
:1016BC0070127B685B6A9A4201D0012300E0002320
:1016CC0018461837BD4680BD00100240007000401F
:1016DC006000424280B584B000AF786039607B68AE
:1016EC00002B01D10123D0E06A4B1B6803F00703E8
:1016FC003A689A4210D9674B1B6823F00702654978
:10170C003B6813430B60634B1B6803F007033A6899
:10171C009A4201D00123B8E07B681B6803F00203F6
:10172C00002B20D07B681B6803F00403002B05D032
:10173C00594B5B68584A43F4E06353607B681B6801
:10174C0003F00803002B05D0534B5B68524A43F45B
:10175C0060535360504B5B6823F0F0027B689B68CE
:10176C004D4913434B607B681B6803F00103002B4E
:10177C0040D07B685B68012B07D1474B1B6803F497
:10178C000033002B15D101237FE07B685B68022BB3
:10179C0007D1414B1B6803F00073002B09D10123C7
:1017AC0073E03D4B1B6803F00203002B01D10123B6
:1017BC006BE0394B5B6823F003027B685B6836494E
:1017CC0013434B60FFF762FAF8600AE0FFF75EFA2A
:1017DC000246FB68D31A41F28832934201D90323A3
:1017EC0053E02D4B5B6803F00C027B685B689B003D
:1017FC009A42EBD1274B1B6803F007033A689A42D5
:10180C0010D2244B1B6823F0070222493B68134378
:10181C000B60204B1B6803F007033A689A4201D017
:10182C00012332E07B681B6803F00403002B08D013
:10183C00194B5B6823F4E0627B68DB681649134341
:10184C004B607B681B6803F00803002B09D0124B1C
:10185C005B6823F460527B681B69DB000E49134301
:10186C004B6000F021F802460B4B5B681B0903F040
:10187C000F030A49CB5C22FA03F3094A1360094BA4
:10188C001B681846FFF7C0F9002318461037BD46F1
:10189C0080BD00BF0020024000100240301A00083A
:1018AC00000000200400002090B48AB000AF2A4B46
:1018BC003C1D0FCB84E80F0040F201233B8000233A
:1018CC00FB610023BB6100237B6200237B6100234F
:1018DC003B62224B5B68FB61FB6903F00C03042B3E
:1018EC0002D0082B03D02DE01D4B3B622DE0FB6991
:1018FC009B0C03F00F0307F12802134413F8243C4C
:10190C007B61FB6903F48033002B13D0134B5B68B2
:10191C005B0C03F0010307F12802134413F8283C75
:10192C00BB617B690E4A02FB03F2BB69B2FBF3F3AA
:10193C007B6204E07B690B4A02FB03F37B627B6AEC
:10194C003B6202E0064B3B6200BF3B6A18462837FD
:10195C00BD4690BC704700BF201A00080010024022
:10196C0000127A0000093D0080B485B000AF7860A9
:10197C000A4B1B680A4AA2FB03235B0A7A6802FB28
:10198C0003F3FB6000BFFB685A1EFA60002BF9D111
:10199C0000BF00BF1437BD4680BC7047000000205C
:1019AC00D34D621070B500260C4D0D4C641BA41069
:1019BC00A64209D100F022F800260A4D0A4C641BFD
:1019CC00A410A64205D170BD55F8043B98470136CA
:1019DC00EEE755F8043B98470136F2E7401A000849
:1019EC00401A0008401A0008441A00080346024432
:1019FC00934200D1704703F8011BF9E7F8B500BF1B
:101A0C00F8BC08BC9E467047F8B500BFF8BC08BCD3
:041A1C009E4670472B
:101A200002030405060708090A0B0C0D0E0F10101F
:101A3000000000000000000001020304060708097E
:041A40003101000868
:041A44000D01000888
:0C1A48000024F400100000000100000069
:0400000508000B9D47
:00000001FF
